:100000000C9446000C945D000C945D000C945D0013
:100010000C945D000C945D000C945D000C945D00EC
:100020000C945D000C945D000C945D000C945D00DC
:100030000C945D000C945D000C945D000C945D00CC
:100040000C945D000C945D000C945D000C945D00BC
:100050000C945D000C945D000C945D000C945D00AC
:100060000C945D000C945D000C945D000C945D009C
:100070000C945D000C945D000C945D000C945D008C
:100080000C945D000C945D000C945D0011241FBE67
:10009000CFEFD0E1DEBFCDBF11E0A0E0B1E0E0EFF7
:1000A000F1E000E00BBF02C007900D92A231B10752
:1000B000D9F70E94E8000C94F6000C94000080939D
:1000C0000211E5E6F0E080818860808385E08A9512
:1000D000F1F78081877F808380E49FE10197F1F7CA
:1000E000089580930111E5E6F0E0808188608083C7
:1000F00085E08A95F1F78081877F808388EC90E0A6
:100100000197F1F7089581E00E945F0080E49FE18C
:100110000197F1F7089580916400886080936400EE
:1001200084EF91E020E931E0F9013197F1F701978F
:10013000D9F788E30E945F0080E29EE40197F1F71F
:1001400088E30E945F0088E592E00197F1F788E379
:100150000E945F008CE00E945F0086E00E945F00CA
:100160000C9483000F931F93CF93DF9300D000D0A4
:10017000CDB7DEB70091000110910101209102017D
:100180003091030109831A832B833C83843008F068
:1001900083E0FE01E80FF11D8181860F80680F90DA
:1001A0000F900F900F90DF91CF911F910F910C94B2
:1001B0005F00CF93DF93EC018991811103C0DF9140
:1001C000CF9108950E947100F7CF8CE00C945F00EE
:1001D00085B7806885BF0E948B0060E080E00E9448
:1001E000B20084E091E00E94D900FFCFF894FFCFE5
:1001F0000040145448656C6C6F204E6F726D616ED8
:020200000000FC
:00000001FF
